{
  "contractName": "TaskTurtle",
  "abi": [
    {
      "anonymous": false,
      "inputs": [
        {
          "indexed": false,
          "internalType": "uint256",
          "name": "taskId",
          "type": "uint256"
        },
        {
          "indexed": false,
          "internalType": "address",
          "name": "performer",
          "type": "address"
        }
      ],
      "name": "PaymentReleased",
      "type": "event"
    },
    {
      "anonymous": false,
      "inputs": [
        {
          "indexed": false,
          "internalType": "uint256",
          "name": "taskId",
          "type": "uint256"
        },
        {
          "indexed": false,
          "internalType": "address",
          "name": "performer",
          "type": "address"
        }
      ],
      "name": "TaskAccepted",
      "type": "event"
    },
    {
      "anonymous": false,
      "inputs": [
        {
          "indexed": false,
          "internalType": "uint256",
          "name": "taskId",
          "type": "uint256"
        },
        {
          "indexed": false,
          "internalType": "address",
          "name": "performer",
          "type": "address"
        }
      ],
      "name": "TaskCompleted",
      "type": "event"
    },
    {
      "anonymous": false,
      "inputs": [
        {
          "indexed": false,
          "internalType": "uint256",
          "name": "taskId",
          "type": "uint256"
        },
        {
          "indexed": false,
          "internalType": "address",
          "name": "requester",
          "type": "address"
        },
        {
          "indexed": false,
          "internalType": "uint256",
          "name": "price",
          "type": "uint256"
        }
      ],
      "name": "TaskCreated",
      "type": "event"
    },
    {
      "inputs": [
        {
          "internalType": "uint256",
          "name": "",
          "type": "uint256"
        }
      ],
      "name": "taskExists",
      "outputs": [
        {
          "internalType": "bool",
          "name": "",
          "type": "bool"
        }
      ],
      "stateMutability": "view",
      "type": "function",
      "constant": true
    },
    {
      "inputs": [
        {
          "internalType": "uint256",
          "name": "",
          "type": "uint256"
        }
      ],
      "name": "tasks",
      "outputs": [
        {
          "internalType": "uint256",
          "name": "id",
          "type": "uint256"
        },
        {
          "internalType": "address",
          "name": "requester",
          "type": "address"
        },
        {
          "internalType": "address",
          "name": "performer",
          "type": "address"
        },
        {
          "internalType": "uint256",
          "name": "price",
          "type": "uint256"
        },
        {
          "internalType": "bool",
          "name": "completed",
          "type": "bool"
        },
        {
          "internalType": "string",
          "name": "desc",
          "type": "string"
        },
        {
          "internalType": "bool",
          "name": "accepted",
          "type": "bool"
        }
      ],
      "stateMutability": "view",
      "type": "function",
      "constant": true
    },
    {
      "inputs": [],
      "name": "tasks_count",
      "outputs": [
        {
          "internalType": "uint256",
          "name": "",
          "type": "uint256"
        }
      ],
      "stateMutability": "view",
      "type": "function",
      "constant": true
    },
    {
      "inputs": [],
      "name": "getTasks",
      "outputs": [
        {
          "components": [
            {
              "internalType": "uint256",
              "name": "id",
              "type": "uint256"
            },
            {
              "internalType": "address",
              "name": "requester",
              "type": "address"
            },
            {
              "internalType": "address",
              "name": "performer",
              "type": "address"
            },
            {
              "internalType": "uint256",
              "name": "price",
              "type": "uint256"
            },
            {
              "internalType": "bool",
              "name": "completed",
              "type": "bool"
            },
            {
              "internalType": "string",
              "name": "desc",
              "type": "string"
            },
            {
              "internalType": "bool",
              "name": "accepted",
              "type": "bool"
            }
          ],
          "internalType": "struct TaskTurtle.Task[]",
          "name": "",
          "type": "tuple[]"
        }
      ],
      "stateMutability": "view",
      "type": "function",
      "constant": true
    },
    {
      "inputs": [
        {
          "internalType": "uint256",
          "name": "_price",
          "type": "uint256"
        },
        {
          "internalType": "string",
          "name": "_desc",
          "type": "string"
        }
      ],
      "name": "createTask",
      "outputs": [],
      "stateMutability": "nonpayable",
      "type": "function"
    },
    {
      "inputs": [
        {
          "internalType": "uint256",
          "name": "_taskId",
          "type": "uint256"
        }
      ],
      "name": "acceptTask",
      "outputs": [],
      "stateMutability": "payable",
      "type": "function",
      "payable": true
    },
    {
      "inputs": [
        {
          "internalType": "uint256",
          "name": "_taskId",
          "type": "uint256"
        }
      ],
      "name": "completeTask",
      "outputs": [],
      "stateMutability": "nonpayable",
      "type": "function"
    },
    {
      "inputs": [
        {
          "internalType": "uint256",
          "name": "_taskId",
          "type": "uint256"
        }
      ],
      "name": "releasePayment",
      "outputs": [],
      "stateMutability": "nonpayable",
      "type": "function"
    },
    {
      "inputs": [],
      "name": "sayHello",
      "outputs": [
        {
          "internalType": "string",
          "name": "",
          "type": "string"
        }
      ],
      "stateMutability": "pure",
      "type": "function",
      "constant": true
    }
  ],
  "bytecode": "0x6080604052600060015573df0987eab5cea97151e5cb42a61dd7d8d752ef37600360006101000a81548173ffffffffffffffffffffffffffffffffffffffff021916908373ffffffffffffffffffffffffffffffffffffffff16021790555034801561006a57600080fd5b50611c1c8061007a6000396000f3fe6080604052600436106100865760003560e01c80638d977672116100595780638d97767214610124578063d90583df14610167578063e1e29558146101a4578063ef5fb05b146101cd578063f99e4e66146101f857610086565b806304a87e381461008b57806316d41b94146100b65780631bf6912d146100df57806388685cd9146100fb575b600080fd5b34801561009757600080fd5b506100a0610223565b6040516100ad91906110a8565b60405180910390f35b3480156100c257600080fd5b506100dd60048036038101906100d8919061123f565b61040a565b005b6100f960048036038101906100f4919061129b565b610683565b005b34801561010757600080fd5b50610122600480360381019061011d919061129b565b6108d0565b005b34801561013057600080fd5b5061014b6004803603810190610146919061129b565b610b08565b60405161015e979695949392919061133f565b60405180910390f35b34801561017357600080fd5b5061018e6004803603810190610189919061129b565b610c3c565b60405161019b91906113b5565b60405180910390f35b3480156101b057600080fd5b506101cb60048036038101906101c6919061129b565b610c5c565b005b3480156101d957600080fd5b506101e2610e1f565b6040516101ef91906113d0565b60405180910390f35b34801561020457600080fd5b5061020d610e3f565b60405161021a91906113f2565b60405180910390f35b60606000805480602002602001604051908101604052809291908181526020016000905b8282101561040157838290600052602060002090600702016040518060e0016040529081600082015481526020016001820160009054906101000a900473ffffffffffffffffffffffffffffffffffffffff1673ffffffffffffffffffffffffffffffffffffffff1673ffffffffffffffffffffffffffffffffffffffff1681526020016002820160009054906101000a900473ffffffffffffffffffffffffffffffffffffffff1673ffffffffffffffffffffffffffffffffffffffff1673ffffffffffffffffffffffffffffffffffffffff168152602001600382015481526020016004820160009054906101000a900460ff161515151581526020016005820180546103559061143c565b80601f01602080910402602001604051908101604052809291908181526020018280546103819061143c565b80156103ce5780601f106103a3576101008083540402835291602001916103ce565b820191906000526020600020905b8154815290600101906020018083116103b157829003601f168201915b505050505081526020016006820160009054906101000a900460ff16151515158152505081526020019060010190610247565b50505050905090565b60018054610418919061149c565b60018190555060026000600154815260200190815260200160002060009054906101000a900460ff1615610481576040517f08c379a00000000000000000000000000000000000000000000000000000000081526004016104789061151c565b60405180910390fd5b60006040518060e0016040528060015481526020013373ffffffffffffffffffffffffffffffffffffffff168152602001600073ffffffffffffffffffffffffffffffffffffffff16815260200184815260200160001515815260200183815260200160001515815250905060008190806001815401808255809150506001900390600052602060002090600702016000909190919091506000820151816000015560208201518160010160006101000a81548173ffffffffffffffffffffffffffffffffffffffff021916908373ffffffffffffffffffffffffffffffffffffffff16021790555060408201518160020160006101000a81548173ffffffffffffffffffffffffffffffffffffffff021916908373ffffffffffffffffffffffffffffffffffffffff1602179055506060820151816003015560808201518160040160006101000a81548160ff02191690831515021790555060a08201518160050190816105f091906116e8565b5060c08201518160060160006101000a81548160ff0219169083151502179055505050600160026000600154815260200190815260200160002060006101000a81548160ff0219169083151502179055507f6cf53aa7292e664152c2ea948c3b3c95d4b05c36daeb2626d0293473c4a4a1536001543385604051610676939291906117ba565b60405180910390a1505050565b6002600082815260200190815260200160002060009054906101000a900460ff166106e3576040517f08c379a00000000000000000000000000000000000000000000000000000000081526004016106da9061183d565b60405180910390fd5b60008082815481106106f8576106f761185d565b5b906000526020600020906007020190508060040160009054906101000a900460ff161561075a576040517f08c379a0000000000000000000000000000000000000000000000000000000008152600401610751906118d8565b60405180910390fd5b600073ffffffffffffffffffffffffffffffffffffffff168160020160009054906101000a900473ffffffffffffffffffffffffffffffffffffffff1673ffffffffffffffffffffffffffffffffffffffff16146107ed576040517f08c379a00000000000000000000000000000000000000000000000000000000081526004016107e49061196a565b60405180910390fd5b80600301543414610833576040517f08c379a000000000000000000000000000000000000000000000000000000000815260040161082a906119d6565b60405180910390fd5b338160020160006101000a81548173ffffffffffffffffffffffffffffffffffffffff021916908373ffffffffffffffffffffffffffffffffffffffff16021790555060018160060160006101000a81548160ff0219169083151502179055507fc8717b61398fb9d7cacf49fe1e296b2f10e9711226b532842b6ffd642cb6a2c682336040516108c49291906119f6565b60405180910390a15050565b6002600082815260200190815260200160002060009054906101000a900460ff16610930576040517f08c379a00000000000000000000000000000000000000000000000000000000081526004016109279061183d565b60405180910390fd5b60008082815481106109455761094461185d565b5b906000526020600020906007020190503373ffffffffffffffffffffffffffffffffffffffff168160010160009054906101000a900473ffffffffffffffffffffffffffffffffffffffff1673ffffffffffffffffffffffffffffffffffffffff16146109e7576040517f08c379a00000000000000000000000000000000000000000000000000000000081526004016109de90611a91565b60405180910390fd5b8060040160009054906101000a900460ff16610a38576040517f08c379a0000000000000000000000000000000000000000000000000000000008152600401610a2f90611afd565b60405180910390fd5b8060020160009054906101000a900473ffffffffffffffffffffffffffffffffffffffff1673ffffffffffffffffffffffffffffffffffffffff166108fc82600301549081150290604051600060405180830381858888f19350505050158015610aa6573d6000803e3d6000fd5b507f4156924bd7e340b19303af17bf5323d66fae5dc16f350319092e0839c8543683828260020160009054906101000a900473ffffffffffffffffffffffffffffffffffffffff16604051610afc9291906119f6565b60405180910390a15050565b60008181548110610b1857600080fd5b90600052602060002090600702016000915090508060000154908060010160009054906101000a900473ffffffffffffffffffffffffffffffffffffffff16908060020160009054906101000a900473ffffffffffffffffffffffffffffffffffffffff16908060030154908060040160009054906101000a900460ff1690806005018054610ba69061143c565b80601f0160208091040260200160405190810160405280929190818152602001828054610bd29061143c565b8015610c1f5780601f10610bf457610100808354040283529160200191610c1f565b820191906000526020600020905b815481529060010190602001808311610c0257829003601f168201915b5050505050908060060160009054906101000a900460ff16905087565b60026020528060005260406000206000915054906101000a900460ff1681565b6002600082815260200190815260200160002060009054906101000a900460ff16610cbc576040517f08c379a0000000000000000000000000000000000000000000000000000000008152600401610cb39061183d565b60405180910390fd5b6000808281548110610cd157610cd061185d565b5b906000526020600020906007020190503373ffffffffffffffffffffffffffffffffffffffff168160020160009054906101000a900473ffffffffffffffffffffffffffffffffffffffff1673ffffffffffffffffffffffffffffffffffffffff1614610d73576040517f08c379a0000000000000000000000000000000000000000000000000000000008152600401610d6a90611b8f565b60405180910390fd5b8060040160009054906101000a900460ff1615610dc5576040517f08c379a0000000000000000000000000000000000000000000000000000000008152600401610dbc906118d8565b60405180910390fd5b60018160040160006101000a81548160ff0219169083151502179055507fbb5889c77948badf90e8a5c73d55265e5f5d6e4837a79a78c5669691b897faed8233604051610e139291906119f6565b60405180910390a15050565b6060604051806060016040528060378152602001611bb060379139905090565b60015481565b600081519050919050565b600082825260208201905092915050565b6000819050602082019050919050565b6000819050919050565b610e8481610e71565b82525050565b600073ffffffffffffffffffffffffffffffffffffffff82169050919050565b6000610eb582610e8a565b9050919050565b610ec581610eaa565b82525050565b60008115159050919050565b610ee081610ecb565b82525050565b600081519050919050565b600082825260208201905092915050565b60005b83811015610f20578082015181840152602081019050610f05565b60008484015250505050565b6000601f19601f8301169050919050565b6000610f4882610ee6565b610f528185610ef1565b9350610f62818560208601610f02565b610f6b81610f2c565b840191505092915050565b600060e083016000830151610f8e6000860182610e7b565b506020830151610fa16020860182610ebc565b506040830151610fb46040860182610ebc565b506060830151610fc76060860182610e7b565b506080830151610fda6080860182610ed7565b5060a083015184820360a0860152610ff28282610f3d565b91505060c083015161100760c0860182610ed7565b508091505092915050565b600061101e8383610f76565b905092915050565b6000602082019050919050565b600061103e82610e45565b6110488185610e50565b93508360208202850161105a85610e61565b8060005b8581101561109657848403895281516110778582611012565b945061108283611026565b925060208a0199505060018101905061105e565b50829750879550505050505092915050565b600060208201905081810360008301526110c28184611033565b905092915050565b6000604051905090565b600080fd5b600080fd5b6110e781610e71565b81146110f257600080fd5b50565b600081359050611104816110de565b92915050565b600080fd5b600080fd5b7f4e487b7100000000000000000000000000000000000000000000000000000000600052604160045260246000fd5b61114c82610f2c565b810181811067ffffffffffffffff8211171561116b5761116a611114565b5b80604052505050565b600061117e6110ca565b905061118a8282611143565b919050565b600067ffffffffffffffff8211156111aa576111a9611114565b5b6111b382610f2c565b9050602081019050919050565b82818337600083830152505050565b60006111e26111dd8461118f565b611174565b9050828152602081018484840111156111fe576111fd61110f565b5b6112098482856111c0565b509392505050565b600082601f8301126112265761122561110a565b5b81356112368482602086016111cf565b91505092915050565b60008060408385031215611256576112556110d4565b5b6000611264858286016110f5565b925050602083013567ffffffffffffffff811115611285576112846110d9565b5b61129185828601611211565b9150509250929050565b6000602082840312156112b1576112b06110d4565b5b60006112bf848285016110f5565b91505092915050565b6112d181610e71565b82525050565b6112e081610eaa565b82525050565b6112ef81610ecb565b82525050565b600082825260208201905092915050565b600061131182610ee6565b61131b81856112f5565b935061132b818560208601610f02565b61133481610f2c565b840191505092915050565b600060e082019050611354600083018a6112c8565b61136160208301896112d7565b61136e60408301886112d7565b61137b60608301876112c8565b61138860808301866112e6565b81810360a083015261139a8185611306565b90506113a960c08301846112e6565b98975050505050505050565b60006020820190506113ca60008301846112e6565b92915050565b600060208201905081810360008301526113ea8184611306565b905092915050565b600060208201905061140760008301846112c8565b92915050565b7f4e487b7100000000000000000000000000000000000000000000000000000000600052602260045260246000fd5b6000600282049050600182168061145457607f821691505b6020821081036114675761146661140d565b5b50919050565b7f4e487b7100000000000000000000000000000000000000000000000000000000600052601160045260246000fd5b60006114a782610e71565b91506114b283610e71565b92508282019050808211156114ca576114c961146d565b5b92915050565b7f5461736b2077697468207468697320696420616c726561647920657869737473600082015250565b60006115066020836112f5565b9150611511826114d0565b602082019050919050565b60006020820190508181036000830152611535816114f9565b9050919050565b60008190508160005260206000209050919050565b60006020601f8301049050919050565b600082821b905092915050565b60006008830261159e7fffffffffffffffffffffffffffffffffffffffffffffffffffffffffffffffff82611561565b6115a88683611561565b95508019841693508086168417925050509392505050565b6000819050919050565b60006115e56115e06115db84610e71565b6115c0565b610e71565b9050919050565b6000819050919050565b6115ff836115ca565b61161361160b826115ec565b84845461156e565b825550505050565b600090565b61162861161b565b6116338184846115f6565b505050565b5b818110156116575761164c600082611620565b600181019050611639565b5050565b601f82111561169c5761166d8161153c565b61167684611551565b81016020851015611685578190505b61169961169185611551565b830182611638565b50505b505050565b600082821c905092915050565b60006116bf600019846008026116a1565b1980831691505092915050565b60006116d883836116ae565b9150826002028217905092915050565b6116f182610ee6565b67ffffffffffffffff81111561170a57611709611114565b5b611714825461143c565b61171f82828561165b565b600060209050601f8311600181146117525760008415611740578287015190505b61174a85826116cc565b8655506117b2565b601f1984166117608661153c565b60005b8281101561178857848901518255600182019150602085019450602081019050611763565b868310156117a557848901516117a1601f8916826116ae565b8355505b6001600288020188555050505b505050505050565b60006060820190506117cf60008301866112c8565b6117dc60208301856112d7565b6117e960408301846112c8565b949350505050565b7f5461736b2077697468207468697320696420646f6573206e6f74206578697374600082015250565b60006118276020836112f5565b9150611832826117f1565b602082019050919050565b600060208201905081810360008301526118568161181a565b9050919050565b7f4e487b7100000000000000000000000000000000000000000000000000000000600052603260045260246000fd5b7f5461736b20616c726561647920636f6d706c6574656400000000000000000000600082015250565b60006118c26016836112f5565b91506118cd8261188c565b602082019050919050565b600060208201905081810360008301526118f1816118b5565b9050919050565b7f5461736b20616c7265616479206163636570746564206279206120706572666f60008201527f726d657200000000000000000000000000000000000000000000000000000000602082015250565b60006119546024836112f5565b915061195f826118f8565b604082019050919050565b6000602082019050818103600083015261198381611947565b9050919050565b7f496e636f7272656374207061796d656e7420616d6f756e740000000000000000600082015250565b60006119c06018836112f5565b91506119cb8261198a565b602082019050919050565b600060208201905081810360008301526119ef816119b3565b9050919050565b6000604082019050611a0b60008301856112c8565b611a1860208301846112d7565b9392505050565b7f4f6e6c7920746865207265717565737465722063616e2072656c65617365207460008201527f6865207061796d656e7400000000000000000000000000000000000000000000602082015250565b6000611a7b602a836112f5565b9150611a8682611a1f565b604082019050919050565b60006020820190508181036000830152611aaa81611a6e565b9050919050565b7f5461736b206e6f7420636f6d706c657465640000000000000000000000000000600082015250565b6000611ae76012836112f5565b9150611af282611ab1565b602082019050919050565b60006020820190508181036000830152611b1681611ada565b9050919050565b7f4f6e6c792074686520706572666f726d65722063616e20636f6d706c6574652060008201527f746865207461736b000000000000000000000000000000000000000000000000602082015250565b6000611b796028836112f5565b9150611b8482611b1d565b604082019050919050565b60006020820190508181036000830152611ba881611b6c565b905091905056fe596f752061726520696e6465656420636f6e6e656374656420746f2074686520426c6f636b436861696e202120436f6e67726174732021a2646970667358221220fd3d13ab78dc422d6e6c4cdd050539cf41bd50fcbb72cc2fca8c731c5291087964736f6c63430008130033",
  "immutableReferences": {},
  "source": "pragma solidity ^0.8.19;\n\ncontract TaskTurtle {\n\n    struct Task {\n        uint id;\n        address requester;\n        address performer;\n        uint price;\n        bool completed;\n        string desc;\n        bool accepted;\n    }\n\n    Task[] public tasks;\n    uint public tasks_count = 0;\n    mapping(uint => bool) public taskExists;\n    address escroWallet = 0xdF0987Eab5cEa97151e5cB42A61dD7D8D752ef37;\n\n    event TaskCreated(uint taskId, address requester, uint price);\n    event TaskAccepted(uint taskId, address performer);\n    event TaskCompleted(uint taskId, address performer);\n    event PaymentReleased(uint taskId, address performer);\n\n    function getTasks() public view returns(Task[] memory){\n      return tasks;\n    }\n\n    function createTask(uint _price, string memory _desc) public {\n        \n        tasks_count = tasks_count+1;\n        require(!taskExists[tasks_count], \"Task with this id already exists\");\n        Task memory newTask = Task({\n            id: tasks_count,\n            requester: msg.sender,\n            performer: address(0),\n            price: _price,\n            completed: false,\n            desc: _desc,\n            accepted: false\n        });\n\n        tasks.push(newTask);\n        taskExists[tasks_count] = true;\n\n        emit TaskCreated(tasks_count, msg.sender, _price);\n    }\n\n    function acceptTask(uint _taskId) public payable {\n        require(taskExists[_taskId], \"Task with this id does not exist\");\n        Task storage task = tasks[_taskId];\n\n        require(!task.completed, \"Task already completed\");\n        require(task.performer == address(0), \"Task already accepted by a performer\");\n        require(msg.value == task.price, \"Incorrect payment amount\");\n\n        task.performer = msg.sender;\n        task.accepted = true;\n\n        emit TaskAccepted(_taskId, msg.sender);\n    }\n\n    function completeTask(uint _taskId) public {\n        require(taskExists[_taskId], \"Task with this id does not exist\");\n        Task storage task = tasks[_taskId];\n\n        require(task.performer == msg.sender, \"Only the performer can complete the task\");\n        require(!task.completed, \"Task already completed\");\n\n        task.completed = true;\n\n        emit TaskCompleted(_taskId, msg.sender);\n    }\n\n    function releasePayment(uint _taskId) public {\n        require(taskExists[_taskId], \"Task with this id does not exist\");\n        Task storage task = tasks[_taskId];\n\n        require(task.requester == msg.sender, \"Only the requester can release the payment\");\n        require(task.completed, \"Task not completed\");\n\n        payable(task.performer).transfer(task.price);\n\n        emit PaymentReleased(_taskId, task.performer);\n    }\n\n    function sayHello() external pure returns (string memory) {\n        return \"You are indeed connected to the BlockChain ! Congrats !\";\n    }\n}\n",
  "sourcePath": "/home/eleve/Bureau/BlockChain/project01/network/contracts/taskturtle.sol",
  "compiler": {
    "name": "solc",
    "version": "0.8.19+commit.7dd6d404.Emscripten.clang"
  },
  "schemaVersion": "3.4.13",
  "updatedAt": "2023-05-15T19:27:41.324Z",
  "networkType": "ethereum",
  "devdoc": {
    "kind": "dev",
    "methods": {},
    "version": 1
  },
  "userdoc": {
    "kind": "user",
    "methods": {},
    "version": 1
  }
}