{
  "contractName": "TaskTurtle",
  "abi": [
    {
      "anonymous": false,
      "inputs": [
        {
          "indexed": false,
          "internalType": "uint256",
          "name": "taskId",
          "type": "uint256"
        },
        {
          "indexed": false,
          "internalType": "address",
          "name": "performer",
          "type": "address"
        }
      ],
      "name": "PaymentReleased",
      "type": "event"
    },
    {
      "anonymous": false,
      "inputs": [
        {
          "indexed": false,
          "internalType": "uint256",
          "name": "taskId",
          "type": "uint256"
        },
        {
          "indexed": false,
          "internalType": "address",
          "name": "performer",
          "type": "address"
        }
      ],
      "name": "TaskAccepted",
      "type": "event"
    },
    {
      "anonymous": false,
      "inputs": [
        {
          "indexed": false,
          "internalType": "uint256",
          "name": "taskId",
          "type": "uint256"
        },
        {
          "indexed": false,
          "internalType": "address",
          "name": "performer",
          "type": "address"
        }
      ],
      "name": "TaskCompleted",
      "type": "event"
    },
    {
      "anonymous": false,
      "inputs": [
        {
          "indexed": false,
          "internalType": "uint256",
          "name": "taskId",
          "type": "uint256"
        },
        {
          "indexed": false,
          "internalType": "address",
          "name": "requester",
          "type": "address"
        },
        {
          "indexed": false,
          "internalType": "uint256",
          "name": "price",
          "type": "uint256"
        }
      ],
      "name": "TaskCreated",
      "type": "event"
    },
    {
      "inputs": [
        {
          "internalType": "uint256",
          "name": "",
          "type": "uint256"
        }
      ],
      "name": "taskExists",
      "outputs": [
        {
          "internalType": "bool",
          "name": "",
          "type": "bool"
        }
      ],
      "stateMutability": "view",
      "type": "function",
      "constant": true
    },
    {
      "inputs": [
        {
          "internalType": "uint256",
          "name": "",
          "type": "uint256"
        }
      ],
      "name": "tasks",
      "outputs": [
        {
          "internalType": "uint256",
          "name": "id",
          "type": "uint256"
        },
        {
          "internalType": "address",
          "name": "requester",
          "type": "address"
        },
        {
          "internalType": "address",
          "name": "performer",
          "type": "address"
        },
        {
          "internalType": "uint256",
          "name": "price",
          "type": "uint256"
        },
        {
          "internalType": "bool",
          "name": "completed",
          "type": "bool"
        }
      ],
      "stateMutability": "view",
      "type": "function",
      "constant": true
    },
    {
      "inputs": [
        {
          "internalType": "uint256",
          "name": "_taskId",
          "type": "uint256"
        },
        {
          "internalType": "uint256",
          "name": "_price",
          "type": "uint256"
        }
      ],
      "name": "createTask",
      "outputs": [],
      "stateMutability": "nonpayable",
      "type": "function"
    },
    {
      "inputs": [
        {
          "internalType": "uint256",
          "name": "_taskId",
          "type": "uint256"
        }
      ],
      "name": "acceptTask",
      "outputs": [],
      "stateMutability": "payable",
      "type": "function",
      "payable": true
    },
    {
      "inputs": [
        {
          "internalType": "uint256",
          "name": "_taskId",
          "type": "uint256"
        }
      ],
      "name": "completeTask",
      "outputs": [],
      "stateMutability": "nonpayable",
      "type": "function"
    },
    {
      "inputs": [
        {
          "internalType": "uint256",
          "name": "_taskId",
          "type": "uint256"
        }
      ],
      "name": "releasePayment",
      "outputs": [],
      "stateMutability": "nonpayable",
      "type": "function"
    },
    {
      "inputs": [],
      "name": "sayHello",
      "outputs": [
        {
          "internalType": "string",
          "name": "",
          "type": "string"
        }
      ],
      "stateMutability": "pure",
      "type": "function",
      "constant": true
    }
  ],
  "bytecode": "0x608060405273df0987eab5cea97151e5cb42a61dd7d8d752ef37600260006101000a81548173ffffffffffffffffffffffffffffffffffffffff021916908373ffffffffffffffffffffffffffffffffffffffff16021790555034801561006557600080fd5b506111cb806100756000396000f3fe6080604052600436106100705760003560e01c8063d90583df1161004e578063d90583df146100fb578063e1e2955814610138578063e75b237814610161578063ef5fb05b1461018a57610070565b80631bf6912d1461007557806388685cd9146100915780638d977672146100ba575b600080fd5b61008f600480360381019061008a9190610b05565b6101b5565b005b34801561009d57600080fd5b506100b860048036038101906100b39190610b05565b6103e5565b005b3480156100c657600080fd5b506100e160048036038101906100dc9190610b05565b61061d565b6040516100f2959493929190610b9d565b60405180910390f35b34801561010757600080fd5b50610122600480360381019061011d9190610b05565b6106b0565b60405161012f9190610bf0565b60405180910390f35b34801561014457600080fd5b5061015f600480360381019061015a9190610b05565b6106d0565b005b34801561016d57600080fd5b5061018860048036038101906101839190610c0b565b610893565b005b34801561019657600080fd5b5061019f610aaa565b6040516101ac9190610cdb565b60405180910390f35b6001600082815260200190815260200160002060009054906101000a900460ff16610215576040517f08c379a000000000000000000000000000000000000000000000000000000000815260040161020c90610d49565b60405180910390fd5b600080828154811061022a57610229610d69565b5b906000526020600020906005020190508060040160009054906101000a900460ff161561028c576040517f08c379a000000000000000000000000000000000000000000000000000000000815260040161028390610de4565b60405180910390fd5b600073ffffffffffffffffffffffffffffffffffffffff168160020160009054906101000a900473ffffffffffffffffffffffffffffffffffffffff1673ffffffffffffffffffffffffffffffffffffffff161461031f576040517f08c379a000000000000000000000000000000000000000000000000000000000815260040161031690610e76565b60405180910390fd5b80600301543414610365576040517f08c379a000000000000000000000000000000000000000000000000000000000815260040161035c90610ee2565b60405180910390fd5b338160020160006101000a81548173ffffffffffffffffffffffffffffffffffffffff021916908373ffffffffffffffffffffffffffffffffffffffff1602179055507fc8717b61398fb9d7cacf49fe1e296b2f10e9711226b532842b6ffd642cb6a2c682336040516103d9929190610f02565b60405180910390a15050565b6001600082815260200190815260200160002060009054906101000a900460ff16610445576040517f08c379a000000000000000000000000000000000000000000000000000000000815260040161043c90610d49565b60405180910390fd5b600080828154811061045a57610459610d69565b5b906000526020600020906005020190503373ffffffffffffffffffffffffffffffffffffffff168160010160009054906101000a900473ffffffffffffffffffffffffffffffffffffffff1673ffffffffffffffffffffffffffffffffffffffff16146104fc576040517f08c379a00000000000000000000000000000000000000000000000000000000081526004016104f390610f9d565b60405180910390fd5b8060040160009054906101000a900460ff1661054d576040517f08c379a000000000000000000000000000000000000000000000000000000000815260040161054490611009565b60405180910390fd5b8060020160009054906101000a900473ffffffffffffffffffffffffffffffffffffffff1673ffffffffffffffffffffffffffffffffffffffff166108fc82600301549081150290604051600060405180830381858888f193505050501580156105bb573d6000803e3d6000fd5b507f4156924bd7e340b19303af17bf5323d66fae5dc16f350319092e0839c8543683828260020160009054906101000a900473ffffffffffffffffffffffffffffffffffffffff16604051610611929190610f02565b60405180910390a15050565b6000818154811061062d57600080fd5b90600052602060002090600502016000915090508060000154908060010160009054906101000a900473ffffffffffffffffffffffffffffffffffffffff16908060020160009054906101000a900473ffffffffffffffffffffffffffffffffffffffff16908060030154908060040160009054906101000a900460ff16905085565b60016020528060005260406000206000915054906101000a900460ff1681565b6001600082815260200190815260200160002060009054906101000a900460ff16610730576040517f08c379a000000000000000000000000000000000000000000000000000000000815260040161072790610d49565b60405180910390fd5b600080828154811061074557610744610d69565b5b906000526020600020906005020190503373ffffffffffffffffffffffffffffffffffffffff168160020160009054906101000a900473ffffffffffffffffffffffffffffffffffffffff1673ffffffffffffffffffffffffffffffffffffffff16146107e7576040517f08c379a00000000000000000000000000000000000000000000000000000000081526004016107de9061109b565b60405180910390fd5b8060040160009054906101000a900460ff1615610839576040517f08c379a000000000000000000000000000000000000000000000000000000000815260040161083090610de4565b60405180910390fd5b60018160040160006101000a81548160ff0219169083151502179055507fbb5889c77948badf90e8a5c73d55265e5f5d6e4837a79a78c5669691b897faed8233604051610887929190610f02565b60405180910390a15050565b6001600083815260200190815260200160002060009054906101000a900460ff16156108f4576040517f08c379a00000000000000000000000000000000000000000000000000000000081526004016108eb90611107565b60405180910390fd5b60006040518060a001604052808481526020013373ffffffffffffffffffffffffffffffffffffffff168152602001600073ffffffffffffffffffffffffffffffffffffffff16815260200183815260200160001515815250905060008190806001815401808255809150506001900390600052602060002090600502016000909190919091506000820151816000015560208201518160010160006101000a81548173ffffffffffffffffffffffffffffffffffffffff021916908373ffffffffffffffffffffffffffffffffffffffff16021790555060408201518160020160006101000a81548173ffffffffffffffffffffffffffffffffffffffff021916908373ffffffffffffffffffffffffffffffffffffffff1602179055506060820151816003015560808201518160040160006101000a81548160ff0219169083151502179055505050600180600085815260200190815260200160002060006101000a81548160ff0219169083151502179055507f6cf53aa7292e664152c2ea948c3b3c95d4b05c36daeb2626d0293473c4a4a153833384604051610a9d93929190611127565b60405180910390a1505050565b606060405180606001604052806037815260200161115f60379139905090565b600080fd5b6000819050919050565b610ae281610acf565b8114610aed57600080fd5b50565b600081359050610aff81610ad9565b92915050565b600060208284031215610b1b57610b1a610aca565b5b6000610b2984828501610af0565b91505092915050565b610b3b81610acf565b82525050565b600073ffffffffffffffffffffffffffffffffffffffff82169050919050565b6000610b6c82610b41565b9050919050565b610b7c81610b61565b82525050565b60008115159050919050565b610b9781610b82565b82525050565b600060a082019050610bb26000830188610b32565b610bbf6020830187610b73565b610bcc6040830186610b73565b610bd96060830185610b32565b610be66080830184610b8e565b9695505050505050565b6000602082019050610c056000830184610b8e565b92915050565b60008060408385031215610c2257610c21610aca565b5b6000610c3085828601610af0565b9250506020610c4185828601610af0565b9150509250929050565b600081519050919050565b600082825260208201905092915050565b60005b83811015610c85578082015181840152602081019050610c6a565b60008484015250505050565b6000601f19601f8301169050919050565b6000610cad82610c4b565b610cb78185610c56565b9350610cc7818560208601610c67565b610cd081610c91565b840191505092915050565b60006020820190508181036000830152610cf58184610ca2565b905092915050565b7f5461736b2077697468207468697320696420646f6573206e6f74206578697374600082015250565b6000610d33602083610c56565b9150610d3e82610cfd565b602082019050919050565b60006020820190508181036000830152610d6281610d26565b9050919050565b7f4e487b7100000000000000000000000000000000000000000000000000000000600052603260045260246000fd5b7f5461736b20616c726561647920636f6d706c6574656400000000000000000000600082015250565b6000610dce601683610c56565b9150610dd982610d98565b602082019050919050565b60006020820190508181036000830152610dfd81610dc1565b9050919050565b7f5461736b20616c7265616479206163636570746564206279206120706572666f60008201527f726d657200000000000000000000000000000000000000000000000000000000602082015250565b6000610e60602483610c56565b9150610e6b82610e04565b604082019050919050565b60006020820190508181036000830152610e8f81610e53565b9050919050565b7f496e636f7272656374207061796d656e7420616d6f756e740000000000000000600082015250565b6000610ecc601883610c56565b9150610ed782610e96565b602082019050919050565b60006020820190508181036000830152610efb81610ebf565b9050919050565b6000604082019050610f176000830185610b32565b610f246020830184610b73565b9392505050565b7f4f6e6c7920746865207265717565737465722063616e2072656c65617365207460008201527f6865207061796d656e7400000000000000000000000000000000000000000000602082015250565b6000610f87602a83610c56565b9150610f9282610f2b565b604082019050919050565b60006020820190508181036000830152610fb681610f7a565b9050919050565b7f5461736b206e6f7420636f6d706c657465640000000000000000000000000000600082015250565b6000610ff3601283610c56565b9150610ffe82610fbd565b602082019050919050565b6000602082019050818103600083015261102281610fe6565b9050919050565b7f4f6e6c792074686520706572666f726d65722063616e20636f6d706c6574652060008201527f746865207461736b000000000000000000000000000000000000000000000000602082015250565b6000611085602883610c56565b915061109082611029565b604082019050919050565b600060208201905081810360008301526110b481611078565b9050919050565b7f5461736b2077697468207468697320696420616c726561647920657869737473600082015250565b60006110f1602083610c56565b91506110fc826110bb565b602082019050919050565b60006020820190508181036000830152611120816110e4565b9050919050565b600060608201905061113c6000830186610b32565b6111496020830185610b73565b6111566040830184610b32565b94935050505056fe596f752061726520696e6465656420636f6e6e656374656420746f2074686520426c6f636b436861696e202120436f6e67726174732021a2646970667358221220623fdf4766d90d729ab4b2045335a29fbf524e72be82e5209edf673bafe1d83e64736f6c63430008130033",
  "immutableReferences": {},
  "source": "pragma solidity ^0.8.19;\n\ncontract TaskTurtle {\n\n    struct Task {\n        uint id;\n        address requester;\n        address performer;\n        uint price;\n        bool completed;\n    }\n\n    Task[] public tasks;\n    mapping(uint => bool) public taskExists;\n    address escroWallet = 0xdF0987Eab5cEa97151e5cB42A61dD7D8D752ef37;\n\n    event TaskCreated(uint taskId, address requester, uint price);\n    event TaskAccepted(uint taskId, address performer);\n    event TaskCompleted(uint taskId, address performer);\n    event PaymentReleased(uint taskId, address performer);\n\n    function createTask(uint _taskId, uint _price) public {\n        require(!taskExists[_taskId], \"Task with this id already exists\");\n\n        Task memory newTask = Task({\n            id: _taskId,\n            requester: msg.sender,\n            performer: address(0),\n            price: _price,\n            completed: false\n        });\n\n        tasks.push(newTask);\n        taskExists[_taskId] = true;\n\n        emit TaskCreated(_taskId, msg.sender, _price);\n    }\n\n    function acceptTask(uint _taskId) public payable {\n        require(taskExists[_taskId], \"Task with this id does not exist\");\n        Task storage task = tasks[_taskId];\n\n        require(!task.completed, \"Task already completed\");\n        require(task.performer == address(0), \"Task already accepted by a performer\");\n        require(msg.value == task.price, \"Incorrect payment amount\");\n\n        task.performer = msg.sender;\n\n        emit TaskAccepted(_taskId, msg.sender);\n    }\n\n    function completeTask(uint _taskId) public {\n        require(taskExists[_taskId], \"Task with this id does not exist\");\n        Task storage task = tasks[_taskId];\n\n        require(task.performer == msg.sender, \"Only the performer can complete the task\");\n        require(!task.completed, \"Task already completed\");\n\n        task.completed = true;\n\n        emit TaskCompleted(_taskId, msg.sender);\n    }\n\n    function releasePayment(uint _taskId) public {\n        require(taskExists[_taskId], \"Task with this id does not exist\");\n        Task storage task = tasks[_taskId];\n\n        require(task.requester == msg.sender, \"Only the requester can release the payment\");\n        require(task.completed, \"Task not completed\");\n\n        payable(task.performer).transfer(task.price);\n\n        emit PaymentReleased(_taskId, task.performer);\n    }\n\n    function sayHello() external pure returns (string memory) {\n        return \"You are indeed connected to the BlockChain ! Congrats !\";\n    }\n}\n",
  "sourcePath": "/home/eleve/Bureau/BlockChain/project01/network/contracts/taskturtle.sol",
  "compiler": {
    "name": "solc",
    "version": "0.8.19+commit.7dd6d404.Emscripten.clang"
  },
  "schemaVersion": "3.4.13",
  "updatedAt": "2023-05-15T07:48:24.390Z",
  "networkType": "ethereum",
  "devdoc": {
    "kind": "dev",
    "methods": {},
    "version": 1
  },
  "userdoc": {
    "kind": "user",
    "methods": {},
    "version": 1
  }
}