{
  "contractName": "TaskTurtle",
  "abi": [
    {
      "anonymous": false,
      "inputs": [
        {
          "indexed": false,
          "internalType": "uint256",
          "name": "taskId",
          "type": "uint256"
        },
        {
          "indexed": false,
          "internalType": "address",
          "name": "performer",
          "type": "address"
        }
      ],
      "name": "PaymentReleased",
      "type": "event"
    },
    {
      "anonymous": false,
      "inputs": [
        {
          "indexed": false,
          "internalType": "uint256",
          "name": "taskId",
          "type": "uint256"
        },
        {
          "indexed": false,
          "internalType": "address",
          "name": "performer",
          "type": "address"
        }
      ],
      "name": "TaskAccepted",
      "type": "event"
    },
    {
      "anonymous": false,
      "inputs": [
        {
          "indexed": false,
          "internalType": "uint256",
          "name": "taskId",
          "type": "uint256"
        },
        {
          "indexed": false,
          "internalType": "address",
          "name": "performer",
          "type": "address"
        }
      ],
      "name": "TaskCompleted",
      "type": "event"
    },
    {
      "anonymous": false,
      "inputs": [
        {
          "indexed": false,
          "internalType": "uint256",
          "name": "taskId",
          "type": "uint256"
        },
        {
          "indexed": false,
          "internalType": "address",
          "name": "requester",
          "type": "address"
        },
        {
          "indexed": false,
          "internalType": "uint256",
          "name": "price",
          "type": "uint256"
        }
      ],
      "name": "TaskCreated",
      "type": "event"
    },
    {
      "inputs": [
        {
          "internalType": "uint256",
          "name": "",
          "type": "uint256"
        }
      ],
      "name": "taskExists",
      "outputs": [
        {
          "internalType": "bool",
          "name": "",
          "type": "bool"
        }
      ],
      "stateMutability": "view",
      "type": "function",
      "constant": true
    },
    {
      "inputs": [
        {
          "internalType": "uint256",
          "name": "",
          "type": "uint256"
        }
      ],
      "name": "tasks",
      "outputs": [
        {
          "internalType": "uint256",
          "name": "id",
          "type": "uint256"
        },
        {
          "internalType": "address",
          "name": "requester",
          "type": "address"
        },
        {
          "internalType": "address",
          "name": "performer",
          "type": "address"
        },
        {
          "internalType": "uint256",
          "name": "price",
          "type": "uint256"
        },
        {
          "internalType": "bool",
          "name": "completed",
          "type": "bool"
        },
        {
          "internalType": "string",
          "name": "desc",
          "type": "string"
        },
        {
          "internalType": "bool",
          "name": "accepted",
          "type": "bool"
        }
      ],
      "stateMutability": "view",
      "type": "function",
      "constant": true
    },
    {
      "inputs": [],
      "name": "getTasks",
      "outputs": [
        {
          "components": [
            {
              "internalType": "uint256",
              "name": "id",
              "type": "uint256"
            },
            {
              "internalType": "address",
              "name": "requester",
              "type": "address"
            },
            {
              "internalType": "address",
              "name": "performer",
              "type": "address"
            },
            {
              "internalType": "uint256",
              "name": "price",
              "type": "uint256"
            },
            {
              "internalType": "bool",
              "name": "completed",
              "type": "bool"
            },
            {
              "internalType": "string",
              "name": "desc",
              "type": "string"
            },
            {
              "internalType": "bool",
              "name": "accepted",
              "type": "bool"
            }
          ],
          "internalType": "struct TaskTurtle.Task[]",
          "name": "",
          "type": "tuple[]"
        }
      ],
      "stateMutability": "view",
      "type": "function",
      "constant": true
    },
    {
      "inputs": [
        {
          "internalType": "uint256",
          "name": "_taskId",
          "type": "uint256"
        },
        {
          "internalType": "uint256",
          "name": "_price",
          "type": "uint256"
        },
        {
          "internalType": "string",
          "name": "_desc",
          "type": "string"
        }
      ],
      "name": "createTask",
      "outputs": [],
      "stateMutability": "nonpayable",
      "type": "function"
    },
    {
      "inputs": [
        {
          "internalType": "uint256",
          "name": "_taskId",
          "type": "uint256"
        }
      ],
      "name": "acceptTask",
      "outputs": [],
      "stateMutability": "payable",
      "type": "function",
      "payable": true
    },
    {
      "inputs": [
        {
          "internalType": "uint256",
          "name": "_taskId",
          "type": "uint256"
        }
      ],
      "name": "completeTask",
      "outputs": [],
      "stateMutability": "nonpayable",
      "type": "function"
    },
    {
      "inputs": [
        {
          "internalType": "uint256",
          "name": "_taskId",
          "type": "uint256"
        }
      ],
      "name": "releasePayment",
      "outputs": [],
      "stateMutability": "nonpayable",
      "type": "function"
    },
    {
      "inputs": [],
      "name": "sayHello",
      "outputs": [
        {
          "internalType": "string",
          "name": "",
          "type": "string"
        }
      ],
      "stateMutability": "pure",
      "type": "function",
      "constant": true
    }
  ],
  "bytecode": "0x608060405273df0987eab5cea97151e5cb42a61dd7d8d752ef37600260006101000a81548173ffffffffffffffffffffffffffffffffffffffff021916908373ffffffffffffffffffffffffffffffffffffffff16021790555034801561006557600080fd5b50611b59806100756000396000f3fe60806040526004361061007b5760003560e01c80638d9776721161004e5780638d97767214610119578063d90583df1461015c578063e1e2955814610199578063ef5fb05b146101c25761007b565b806304a87e38146100805780631bf6912d146100ab57806382b35017146100c757806388685cd9146100f0575b600080fd5b34801561008c57600080fd5b506100956101ed565b6040516100a29190611050565b60405180910390f35b6100c560048036038101906100c091906110b2565b6103d4565b005b3480156100d357600080fd5b506100ee60048036038101906100e99190611214565b610621565b005b3480156100fc57600080fd5b50610117600480360381019061011291906110b2565b61087e565b005b34801561012557600080fd5b50610140600480360381019061013b91906110b2565b610ab6565b60405161015397969594939291906112fa565b60405180910390f35b34801561016857600080fd5b50610183600480360381019061017e91906110b2565b610bea565b6040516101909190611370565b60405180910390f35b3480156101a557600080fd5b506101c060048036038101906101bb91906110b2565b610c0a565b005b3480156101ce57600080fd5b506101d7610dcd565b6040516101e4919061138b565b60405180910390f35b60606000805480602002602001604051908101604052809291908181526020016000905b828210156103cb57838290600052602060002090600702016040518060e0016040529081600082015481526020016001820160009054906101000a900473ffffffffffffffffffffffffffffffffffffffff1673ffffffffffffffffffffffffffffffffffffffff1673ffffffffffffffffffffffffffffffffffffffff1681526020016002820160009054906101000a900473ffffffffffffffffffffffffffffffffffffffff1673ffffffffffffffffffffffffffffffffffffffff1673ffffffffffffffffffffffffffffffffffffffff168152602001600382015481526020016004820160009054906101000a900460ff1615151515815260200160058201805461031f906113dc565b80601f016020809104026020016040519081016040528092919081815260200182805461034b906113dc565b80156103985780601f1061036d57610100808354040283529160200191610398565b820191906000526020600020905b81548152906001019060200180831161037b57829003601f168201915b505050505081526020016006820160009054906101000a900460ff16151515158152505081526020019060010190610211565b50505050905090565b6001600082815260200190815260200160002060009054906101000a900460ff16610434576040517f08c379a000000000000000000000000000000000000000000000000000000000815260040161042b90611459565b60405180910390fd5b600080828154811061044957610448611479565b5b906000526020600020906007020190508060040160009054906101000a900460ff16156104ab576040517f08c379a00000000000000000000000000000000000000000000000000000000081526004016104a2906114f4565b60405180910390fd5b600073ffffffffffffffffffffffffffffffffffffffff168160020160009054906101000a900473ffffffffffffffffffffffffffffffffffffffff1673ffffffffffffffffffffffffffffffffffffffff161461053e576040517f08c379a000000000000000000000000000000000000000000000000000000000815260040161053590611586565b60405180910390fd5b80600301543414610584576040517f08c379a000000000000000000000000000000000000000000000000000000000815260040161057b906115f2565b60405180910390fd5b338160020160006101000a81548173ffffffffffffffffffffffffffffffffffffffff021916908373ffffffffffffffffffffffffffffffffffffffff16021790555060018160060160006101000a81548160ff0219169083151502179055507fc8717b61398fb9d7cacf49fe1e296b2f10e9711226b532842b6ffd642cb6a2c68233604051610615929190611612565b60405180910390a15050565b6001600084815260200190815260200160002060009054906101000a900460ff1615610682576040517f08c379a000000000000000000000000000000000000000000000000000000000815260040161067990611687565b60405180910390fd5b60006040518060e001604052808581526020013373ffffffffffffffffffffffffffffffffffffffff168152602001600073ffffffffffffffffffffffffffffffffffffffff16815260200184815260200160001515815260200183815260200160001515815250905060008190806001815401808255809150506001900390600052602060002090600702016000909190919091506000820151816000015560208201518160010160006101000a81548173ffffffffffffffffffffffffffffffffffffffff021916908373ffffffffffffffffffffffffffffffffffffffff16021790555060408201518160020160006101000a81548173ffffffffffffffffffffffffffffffffffffffff021916908373ffffffffffffffffffffffffffffffffffffffff1602179055506060820151816003015560808201518160040160006101000a81548160ff02191690831515021790555060a08201518160050190816107ef9190611853565b5060c08201518160060160006101000a81548160ff0219169083151502179055505050600180600086815260200190815260200160002060006101000a81548160ff0219169083151502179055507f6cf53aa7292e664152c2ea948c3b3c95d4b05c36daeb2626d0293473c4a4a15384338560405161087093929190611925565b60405180910390a150505050565b6001600082815260200190815260200160002060009054906101000a900460ff166108de576040517f08c379a00000000000000000000000000000000000000000000000000000000081526004016108d590611459565b60405180910390fd5b60008082815481106108f3576108f2611479565b5b906000526020600020906007020190503373ffffffffffffffffffffffffffffffffffffffff168160010160009054906101000a900473ffffffffffffffffffffffffffffffffffffffff1673ffffffffffffffffffffffffffffffffffffffff1614610995576040517f08c379a000000000000000000000000000000000000000000000000000000000815260040161098c906119ce565b60405180910390fd5b8060040160009054906101000a900460ff166109e6576040517f08c379a00000000000000000000000000000000000000000000000000000000081526004016109dd90611a3a565b60405180910390fd5b8060020160009054906101000a900473ffffffffffffffffffffffffffffffffffffffff1673ffffffffffffffffffffffffffffffffffffffff166108fc82600301549081150290604051600060405180830381858888f19350505050158015610a54573d6000803e3d6000fd5b507f4156924bd7e340b19303af17bf5323d66fae5dc16f350319092e0839c8543683828260020160009054906101000a900473ffffffffffffffffffffffffffffffffffffffff16604051610aaa929190611612565b60405180910390a15050565b60008181548110610ac657600080fd5b90600052602060002090600702016000915090508060000154908060010160009054906101000a900473ffffffffffffffffffffffffffffffffffffffff16908060020160009054906101000a900473ffffffffffffffffffffffffffffffffffffffff16908060030154908060040160009054906101000a900460ff1690806005018054610b54906113dc565b80601f0160208091040260200160405190810160405280929190818152602001828054610b80906113dc565b8015610bcd5780601f10610ba257610100808354040283529160200191610bcd565b820191906000526020600020905b815481529060010190602001808311610bb057829003601f168201915b5050505050908060060160009054906101000a900460ff16905087565b60016020528060005260406000206000915054906101000a900460ff1681565b6001600082815260200190815260200160002060009054906101000a900460ff16610c6a576040517f08c379a0000000000000000000000000000000000000000000000000000000008152600401610c6190611459565b60405180910390fd5b6000808281548110610c7f57610c7e611479565b5b906000526020600020906007020190503373ffffffffffffffffffffffffffffffffffffffff168160020160009054906101000a900473ffffffffffffffffffffffffffffffffffffffff1673ffffffffffffffffffffffffffffffffffffffff1614610d21576040517f08c379a0000000000000000000000000000000000000000000000000000000008152600401610d1890611acc565b60405180910390fd5b8060040160009054906101000a900460ff1615610d73576040517f08c379a0000000000000000000000000000000000000000000000000000000008152600401610d6a906114f4565b60405180910390fd5b60018160040160006101000a81548160ff0219169083151502179055507fbb5889c77948badf90e8a5c73d55265e5f5d6e4837a79a78c5669691b897faed8233604051610dc1929190611612565b60405180910390a15050565b6060604051806060016040528060378152602001611aed60379139905090565b600081519050919050565b600082825260208201905092915050565b6000819050602082019050919050565b6000819050919050565b610e2c81610e19565b82525050565b600073ffffffffffffffffffffffffffffffffffffffff82169050919050565b6000610e5d82610e32565b9050919050565b610e6d81610e52565b82525050565b60008115159050919050565b610e8881610e73565b82525050565b600081519050919050565b600082825260208201905092915050565b60005b83811015610ec8578082015181840152602081019050610ead565b60008484015250505050565b6000601f19601f8301169050919050565b6000610ef082610e8e565b610efa8185610e99565b9350610f0a818560208601610eaa565b610f1381610ed4565b840191505092915050565b600060e083016000830151610f366000860182610e23565b506020830151610f496020860182610e64565b506040830151610f5c6040860182610e64565b506060830151610f6f6060860182610e23565b506080830151610f826080860182610e7f565b5060a083015184820360a0860152610f9a8282610ee5565b91505060c0830151610faf60c0860182610e7f565b508091505092915050565b6000610fc68383610f1e565b905092915050565b6000602082019050919050565b6000610fe682610ded565b610ff08185610df8565b93508360208202850161100285610e09565b8060005b8581101561103e578484038952815161101f8582610fba565b945061102a83610fce565b925060208a01995050600181019050611006565b50829750879550505050505092915050565b6000602082019050818103600083015261106a8184610fdb565b905092915050565b6000604051905090565b600080fd5b600080fd5b61108f81610e19565b811461109a57600080fd5b50565b6000813590506110ac81611086565b92915050565b6000602082840312156110c8576110c761107c565b5b60006110d68482850161109d565b91505092915050565b600080fd5b600080fd5b7f4e487b7100000000000000000000000000000000000000000000000000000000600052604160045260246000fd5b61112182610ed4565b810181811067ffffffffffffffff821117156111405761113f6110e9565b5b80604052505050565b6000611153611072565b905061115f8282611118565b919050565b600067ffffffffffffffff82111561117f5761117e6110e9565b5b61118882610ed4565b9050602081019050919050565b82818337600083830152505050565b60006111b76111b284611164565b611149565b9050828152602081018484840111156111d3576111d26110e4565b5b6111de848285611195565b509392505050565b600082601f8301126111fb576111fa6110df565b5b813561120b8482602086016111a4565b91505092915050565b60008060006060848603121561122d5761122c61107c565b5b600061123b8682870161109d565b935050602061124c8682870161109d565b925050604084013567ffffffffffffffff81111561126d5761126c611081565b5b611279868287016111e6565b9150509250925092565b61128c81610e19565b82525050565b61129b81610e52565b82525050565b6112aa81610e73565b82525050565b600082825260208201905092915050565b60006112cc82610e8e565b6112d681856112b0565b93506112e6818560208601610eaa565b6112ef81610ed4565b840191505092915050565b600060e08201905061130f600083018a611283565b61131c6020830189611292565b6113296040830188611292565b6113366060830187611283565b61134360808301866112a1565b81810360a083015261135581856112c1565b905061136460c08301846112a1565b98975050505050505050565b600060208201905061138560008301846112a1565b92915050565b600060208201905081810360008301526113a581846112c1565b905092915050565b7f4e487b7100000000000000000000000000000000000000000000000000000000600052602260045260246000fd5b600060028204905060018216806113f457607f821691505b602082108103611407576114066113ad565b5b50919050565b7f5461736b2077697468207468697320696420646f6573206e6f74206578697374600082015250565b60006114436020836112b0565b915061144e8261140d565b602082019050919050565b6000602082019050818103600083015261147281611436565b9050919050565b7f4e487b7100000000000000000000000000000000000000000000000000000000600052603260045260246000fd5b7f5461736b20616c726561647920636f6d706c6574656400000000000000000000600082015250565b60006114de6016836112b0565b91506114e9826114a8565b602082019050919050565b6000602082019050818103600083015261150d816114d1565b9050919050565b7f5461736b20616c7265616479206163636570746564206279206120706572666f60008201527f726d657200000000000000000000000000000000000000000000000000000000602082015250565b60006115706024836112b0565b915061157b82611514565b604082019050919050565b6000602082019050818103600083015261159f81611563565b9050919050565b7f496e636f7272656374207061796d656e7420616d6f756e740000000000000000600082015250565b60006115dc6018836112b0565b91506115e7826115a6565b602082019050919050565b6000602082019050818103600083015261160b816115cf565b9050919050565b60006040820190506116276000830185611283565b6116346020830184611292565b9392505050565b7f5461736b2077697468207468697320696420616c726561647920657869737473600082015250565b60006116716020836112b0565b915061167c8261163b565b602082019050919050565b600060208201905081810360008301526116a081611664565b9050919050565b60008190508160005260206000209050919050565b60006020601f8301049050919050565b600082821b905092915050565b6000600883026117097fffffffffffffffffffffffffffffffffffffffffffffffffffffffffffffffff826116cc565b61171386836116cc565b95508019841693508086168417925050509392505050565b6000819050919050565b600061175061174b61174684610e19565b61172b565b610e19565b9050919050565b6000819050919050565b61176a83611735565b61177e61177682611757565b8484546116d9565b825550505050565b600090565b611793611786565b61179e818484611761565b505050565b5b818110156117c2576117b760008261178b565b6001810190506117a4565b5050565b601f821115611807576117d8816116a7565b6117e1846116bc565b810160208510156117f0578190505b6118046117fc856116bc565b8301826117a3565b50505b505050565b600082821c905092915050565b600061182a6000198460080261180c565b1980831691505092915050565b60006118438383611819565b9150826002028217905092915050565b61185c82610e8e565b67ffffffffffffffff811115611875576118746110e9565b5b61187f82546113dc565b61188a8282856117c6565b600060209050601f8311600181146118bd57600084156118ab578287015190505b6118b58582611837565b86555061191d565b601f1984166118cb866116a7565b60005b828110156118f3578489015182556001820191506020850194506020810190506118ce565b86831015611910578489015161190c601f891682611819565b8355505b6001600288020188555050505b505050505050565b600060608201905061193a6000830186611283565b6119476020830185611292565b6119546040830184611283565b949350505050565b7f4f6e6c7920746865207265717565737465722063616e2072656c65617365207460008201527f6865207061796d656e7400000000000000000000000000000000000000000000602082015250565b60006119b8602a836112b0565b91506119c38261195c565b604082019050919050565b600060208201905081810360008301526119e7816119ab565b9050919050565b7f5461736b206e6f7420636f6d706c657465640000000000000000000000000000600082015250565b6000611a246012836112b0565b9150611a2f826119ee565b602082019050919050565b60006020820190508181036000830152611a5381611a17565b9050919050565b7f4f6e6c792074686520706572666f726d65722063616e20636f6d706c6574652060008201527f746865207461736b000000000000000000000000000000000000000000000000602082015250565b6000611ab66028836112b0565b9150611ac182611a5a565b604082019050919050565b60006020820190508181036000830152611ae581611aa9565b905091905056fe596f752061726520696e6465656420636f6e6e656374656420746f2074686520426c6f636b436861696e202120436f6e67726174732021a2646970667358221220dde61dbf680e75bc8006f83389074ff28eaa1ca6fd07a00876967735f2c0590464736f6c63430008130033",
  "immutableReferences": {},
  "source": "pragma solidity ^0.8.19;\n\ncontract TaskTurtle {\n\n    struct Task {\n        uint id;\n        address requester;\n        address performer;\n        uint price;\n        bool completed;\n        string desc;\n        bool accepted;\n    }\n\n    Task[] public tasks;\n    mapping(uint => bool) public taskExists;\n    address escroWallet = 0xdF0987Eab5cEa97151e5cB42A61dD7D8D752ef37;\n\n    event TaskCreated(uint taskId, address requester, uint price);\n    event TaskAccepted(uint taskId, address performer);\n    event TaskCompleted(uint taskId, address performer);\n    event PaymentReleased(uint taskId, address performer);\n\n    function getTasks() public view returns(Task[] memory){\n      return tasks;\n    }\n\n    function createTask(uint _taskId, uint _price, string memory _desc) public {\n        require(!taskExists[_taskId], \"Task with this id already exists\");\n\n        Task memory newTask = Task({\n            id: _taskId,\n            requester: msg.sender,\n            performer: address(0),\n            price: _price,\n            completed: false,\n            desc: _desc,\n            accepted: false\n        });\n\n        tasks.push(newTask);\n        taskExists[_taskId] = true;\n\n        emit TaskCreated(_taskId, msg.sender, _price);\n    }\n\n    function acceptTask(uint _taskId) public payable {\n        require(taskExists[_taskId], \"Task with this id does not exist\");\n        Task storage task = tasks[_taskId];\n\n        require(!task.completed, \"Task already completed\");\n        require(task.performer == address(0), \"Task already accepted by a performer\");\n        require(msg.value == task.price, \"Incorrect payment amount\");\n\n        task.performer = msg.sender;\n        task.accepted = true;\n\n        emit TaskAccepted(_taskId, msg.sender);\n    }\n\n    function completeTask(uint _taskId) public {\n        require(taskExists[_taskId], \"Task with this id does not exist\");\n        Task storage task = tasks[_taskId];\n\n        require(task.performer == msg.sender, \"Only the performer can complete the task\");\n        require(!task.completed, \"Task already completed\");\n\n        task.completed = true;\n\n        emit TaskCompleted(_taskId, msg.sender);\n    }\n\n    function releasePayment(uint _taskId) public {\n        require(taskExists[_taskId], \"Task with this id does not exist\");\n        Task storage task = tasks[_taskId];\n\n        require(task.requester == msg.sender, \"Only the requester can release the payment\");\n        require(task.completed, \"Task not completed\");\n\n        payable(task.performer).transfer(task.price);\n\n        emit PaymentReleased(_taskId, task.performer);\n    }\n\n    function sayHello() external pure returns (string memory) {\n        return \"You are indeed connected to the BlockChain ! Congrats !\";\n    }\n}\n",
  "sourcePath": "/home/eleve/Bureau/BlockChain/project01/network/contracts/taskturtle.sol",
  "compiler": {
    "name": "solc",
    "version": "0.8.19+commit.7dd6d404.Emscripten.clang"
  },
  "schemaVersion": "3.4.13",
  "updatedAt": "2023-05-15T13:07:28.341Z",
  "networkType": "ethereum",
  "devdoc": {
    "kind": "dev",
    "methods": {},
    "version": 1
  },
  "userdoc": {
    "kind": "user",
    "methods": {},
    "version": 1
  }
}